:020000040000FA
:10D000005813002015D100002FD1000031D10000AD
:10D010000000000000000000000000000000000010
:10D0200000000000000000000000000033D10000FC
:10D03000000000000000000035D1000037D10000E2
:10D0400039D1000039D1000039D1000019D40000D5
:10D0500039D100000000000039D1000039D10000B2
:10D0600039D1000039D1000039D1000039D1000098
:10D0700039D1000039D1000039D1000039D1000088
:10D0800039D10000F1D3000039D1000039D10000BE
:10D090004DD4000039D1000039D1000039D1000051
:10D0A00039D1000039D1000000000000000000006C
:10D0B0000000000000000000000000000000000070
:10D0C0000348854600F054F80048004709D900009D
:10D0D00058130020401E00BF00BF00BF00BF00BFAC
:10D0E00000BF00BF00BF00BF00BF00BF00BFF1D145
:10D0F00070470000401E00BF00BF00BF00BF00BF60
:10D1000000BF00BF00BF00BF00BF00BF00BFF1D124
:10D11000704700000321094802680A43026008487A
:10D1200002680A4302600748804707480047FEE755
:10D13000FEE7FEE7FEE7FEE7FEE70000240500400D
:10D140005405004055D40000C1D0000003460B43F5
:10D150009B0703D009E008C9121F08C0042AFAD2AD
:10D1600003E00B78491C0370401C521EF9D2704733
:10D17000064C0125064E05E02046E36807C82B4310
:10D1800098471034B442F7D3FFF79EFF20E6000023
:10D1900040E60000FFB583B0002002900190002619
:10D1A0000025052000F0F2FB082000F0EFFB564FB1
:10D1B00000BF05E000205449885554498855761C25
:10D1C000FF2EF7DD039838706D1C0498401C0CD0BE
:10D1D00000BF022605E0F1000498C8407855761E8D
:10D1E0006D1C002EF7DA00BF00BF03986C2821D019
:10D1F0000EDC3C281CD006DC0B2816D00C2815D0E1
:10D200003B284AD113E04B2815D06B2845D110E0BC
:10D21000BC281DD004DCAB2833D0BB283DD116E0A0
:10D22000EB2821D0EC2838D11FE000BF00BF00BFA1
:10D2300000BF00BF00BF01200190002403E00020D8
:10D240007855641C6D1C01988442F8DB28E000BF0F
:10D2500001200190002403E000207855641C6D1C1F
:10D2600001988442F8DB1BE000BF032001900024FA
:10D2700003E000207855641C6D1C01988442F8DBA3
:10D280000EE003200190002403E000207855641C88
:10D290006D1C01988442F8DB02E00020019000BF81
:10D2A00000BF069880B2AAB2009039460020059BC4
:10D2B00000F0CAFE069800281DD00398BB2812D0A3
:10D2C00008DC3B280DD03C280CD06B280DD06C28F6
:10D2D0000FD10BE0BC2807D0EB2808D0EC2808D1F0
:10D2E00006E000BF00BF00BF04E000BF00BF00BFFA
:10D2F00000E000BF00BF052000F060FB082000F048
:10D300005DFB029807B0F0BD58090020580A0020C4
:10D31000FFB583B01E460020029000240025234F55
:10D3200000BF05E000202149085521490855641C2B
:10D33000FF2CF7DD052000F029FB082000F026FB7C
:10D340000498401C0CD0039878556D1C022405E00D
:10D35000E1000498C8407855641E6D1C002CF7DA73
:10D36000002E12D00398322802D0342802D100E0D7
:10D3700000BF09E0002404E00598005D7855641CB6
:10D380006D1CB442F8DB00BF00BFB0B2AAB200907F
:10D3900039460020059B00F057FE052000F00EFBEB
:10D3A000082000F00BFB029807B0F0BD58090020E0
:10D3B000580A0020C206D20E01219140014A116094
:10D3C0007047000080E200E0C206D20E01219140C9
:10D3D000014A11607047000000E100E0C206D20E71
:10D3E00001219140014A11607047000000E200E015
:10D3F00010B500200749086000210648416081609F
:10D40000C1600020034940390860486001F0A6F877
:10D4100010BD00004011014010B50A488068012885
:10D420000ED1094840680421084209D0002005496E
:10D43000886000F04FFC0446204600F0B3FE00BFB9
:10D4400010BD0000003100400033004010B500F076
:10D4500095FF10BD10B500F037F9002805D007483A
:10D4600007494860C8130749886100F013F900288C
:10D4700002D001200449886010BD0000DFFF07C012
:10D4800000050040006C00400006004002E008C8B3
:10D49000121F08C1002AFAD170477047002001E02E
:10D4A00001C1121F002AFBD1704700BFFEE7000038
:10D4B000FEB51E480068401C34D01C48006824217A
:10D4C00048431B4909684018456800F07FFA0190FD
:10D4D000184804682146019800F018FFC61C164839
:10D4E0000078002801D100F077FAAE4201D2284638
:10D4F00000E0304604192402240A20460F4908603F
:10D5000000BF00F063FA00900199009800F0FEFE61
:10D51000C71C2046019900F0F9FE874201D901F0AD
:10D5200069F801E000F076FAFEBD00001409002061
:10D5300008090020180900202C090020401501408E
:10D54000014614480078144A127890421DD01148C0
:10D550000078401C0F4A107010460078022801D154
:10D56000002010700B48007880000C4A10580860AA
:10D570000B4A086812688018094A10601046006853
:10D580000002000A1060012070470020086000BF00
:10D59000FAE7000024090020250900201C090020CA
:10D5A00018090020F0B50346002426E0164E366820
:10D5B00024277E43154F3F68F01946689E4203D9E1
:10D5C0004668F61A46601CE046689B1B466834199C
:10D5D0000026466006750C4E35680B4F066A3E60A5
:10D5E0000669002E08D00E193602360A86600669D2
:10D5F000C66016680662156000BF03480068401CDC
:10D60000D4D100BFF0BD000014090020080900209B
:10D6100010B5082000F096F9032000F093F90F20D0
:10D6200000F090F91E2000F08DF9082000F0B6F906
:10D63000032000F0B3F90F2000F0B0F91E2000F035
:10D64000ADF910BD1CB50020104908707D20C00048
:10D6500000F06AF90F20012181400D4AD16000BF1E
:10D660000A4800F027FA00F001FA0020009001902B
:10D670000521684600F005FA044800F01BFA0F2067
:10D6800001218140024A916000BF1CBD00090020B9
:10D69000000500500B48008CC0B2012810D1094889
:10D6A000808C0007000F0BD10648806AF0210840EB
:10D6B000402805D10348C06A084201D101207047C3
:10D6C0000020FCE7C00F00F01748008CC0B2012812
:10D6D00027D11548808C0007000F22D11248806A9C
:10D6E000F021084205D11048C06A084201D101204A
:10D6F00070470D48806AF0210840102805D10A487B
:10D70000C06A084201D10120F2E70748806AF0218F
:10D710000840302805D10448C06A084201D10120E0
:10D72000E6E70020E4E70000C00F00F0FEB52B485C
:10D73000006801902A48007800903FE00098C000FF
:10D74000284909684418257834E01820684361683E
:10D750000F18681CC5B2A078A84200D100253878FF
:10D76000022802D0032822D10EE024217868484301
:10D770001D4909684618307D002804D0786800F0FB
:10D7800097FE0020307513E00CE01449096824224C
:10D790005143154A12688818002101750F4A016A21
:10D7A000116000BF0D480068401CEED100E000BFD2
:10D7B00000BF00BF6078A842C7D100BF0098411EDB
:10D7C000C9B200910028B9D104480168019881428A
:10D7D00001D00120FEBD0020FCE70000140900205C
:10D7E0000D0900201009002008090020FEB5074699
:10D7F0003F48006802903F480078019069E0019836
:10D80000C0003D49096845185CE0781C07D03E46D9
:10D8100024207043394909684418276A23E029788D
:10D82000182359436A6850182978491C29702978A7
:10D83000AA78914201D100212970466824217143C0
:10D840002E4A12688C180178012902D1217D002905
:10D8500000D037E08168A160C168E16001692161A1
:10D860004169E16100BF2649A0680968401A0002C9
:10D87000000A2449884208D22149A068096800F0BA
:10D8800045FDE1684018606011E01D48A16800682E
:10D8900000F03CFD0090E1680098814204D9E16805
:10D8A0000098081A606001E00020606000BF00205E
:10D8B000A060E06001202075801E2062304600F0EC
:10D8C0008BFD00BF781CA0D12878697888429CD154
:10D8D00000BF0198411EC9B2019100288FD10448B0
:10D8E00001680298814201D00120FEBD0020FCE7C2
:10D8F000140900200D09002010090020080900204B
:10D9000018090020FFFF7F00FFF782FE00F0FAF801
:10D91000FFF798FE032001218140024AD16000BF39
:10D9200000BFFEE70005005001B505E00098401E6D
:10D9300000900348FFF7CEFB00980028F6D108BD01
:10D94000E703000003210522120707231B02D21858
:10D950008300D150704703210522120707231B02C1
:10D96000D2188300D15070470321052212070723E4
:10D970001B02D2188300D150704700000121814062
:10D98000014AD1607047000000050050012181402C
:10D99000014AD1607047000000050050012181401C
:10D9A000014A91607047000000050050012181404C
:10D9B000014A91607047000000050050012181403C
:10D9C000014A91607047000000050050014840681E
:10D9D000704700000015014010B5012000040A49FD
:10D9E00048600949403948601120FFF7E3FC1120E5
:10D9F000FFF7EAFC0120054908602F20FFF77AFBBA
:10DA000001200349087010BD40130140001001407F
:10DA10002C09002010B51120012181400E4A11600F
:10DA200000BF012000040D4988600C49403988601E
:10DA300001200B4948602F20FFF75CFB01200849BB
:10DA400088600020074908602F20FFF753FB002063
:10DA50000549087010BD000080E100E0401301405E
:10DA600000100140180900202C09002010B50024E6
:10DA700000231A46591E3020FFF74AFC0446204670
:10DA800010BD70B504460D4600262B462246711E79
:10DA90009F20FFF77FFB0646304670BD70B50446F9
:10DAA000002501232246991E0520FFF773FB05463A
:10DAB000284670BD38B5044600256846FFF7EEFFDE
:10DAC0000546002D01D0284638BD68460078C007BD
:10DAD000C00F12D0684600782021084202D00320EF
:10DAE00020700CE0684600784021084202D00220F5
:10DAF000207004E00520207001E0012020702846FD
:10DB0000E2E7000010B50520FFF72EFF0620FFF723
:10DB10002BFF0920FFF728FF00220749104600F0DD
:10DB2000E5F80520FFF74AFF0620FFF747FF092029
:10DB3000FFF744FF10BD00003DDB000001B50020F1
:10DB400069460978012900D100E000BF00BF08BD87
:10DB5000FFB581B0044615461E460A9F00BF002D42
:10DB600001D0012000E0002000900098002805D19D
:10DB700000BF19A29221FFF798FC00BF00BF00BFB1
:10DB8000002E01D0012000E0002000900098002825
:10DB900005D100BF10A29321FFF787FC00BF00BF93
:10DBA00000BF002F01D0012000E00020009000986D
:10DBB000002805D100BF08A29421FFF776FC00BF22
:10DBC00000BF2C60002C01D0029800E000203080C3
:10DBD0000020388005B0F0BD2E2E5C2E2E5C536FD9
:10DBE000757263655C7370695F6D61737465725C97
:10DBF0007370695F6D61737465722E63000000005D
:10DC000070B504460D4600BF002C01D0012000E095
:10DC100000200646002E05D100BF0DA2A121FFF76E
:10DC200044FC00BF00BF00BF002D01D0012000E078
:10DC300000200646002E05D100BF05A2A221FFF755
:10DC400034FC00BF00BF00202060288070BD0000B1
:10DC50002E2E5C2E2E5C536F757263655C7370693B
:10DC60005F6D61737465725C7370695F6D6173740D
:10DC700065722E6300000000F8B506460C4630467B
:10DC800000F028F8054600BF002D01D0012000E07B
:10DC900000200746002F06D100BF04A2FF218A31D1
:10DCA000FFF703FC00BF00BF2C62F8BD2E2E5C2ED8
:10DCB0002E5C536F757263655C7370695F6D617321
:10DCC0007465725C7370695F6D61737465722E63E5
:10DCD000000000000146012904DA28204843024AD6
:10DCE000801870470020FCE730090020F0B587B0AD
:10DCF00004460F46154600261C2217496846FFF7C2
:10DD000025FA002C0CD10B2001901720029018202E
:10DD1000039005200490002168468176417600E05A
:10DD200000BF00BF684605766946204600F072F8DD
:10DD3000064600BF3346002B06D000BF07A2FF21D6
:10DD400097311846FFF7B1FB00BF39462046FFF771
:10DD500093FF07B0F0BD000004E600002E2E5C53D8
:10DD600070616E73696F6E5F534C4C445F763133F4
:10DD70002E322E315C48616C735C6E5246353178C0
:10DD800078785C736C6C645F68616C2E6300000073
:10DD9000FFB581B005460E46144600BF002C01D0E9
:10DDA000012000E000200746002F05D100BF0FA290
:10DDB0007121FFF77AFB00BF00BF256026710020AC
:10DDC000A060A081E0812061A082E0826083208346
:10DDD0002077206200212420015525200155684626
:10DDE000017C2620015505B0F0BD00002E2E5C2ED2
:10DDF0002E5C536F757263655C7370695F6D6173E0
:10DE00007465725C7370695F6D61737465722E63A3
:10DE100000000000F8B506460C46002C01D10E208B
:10DE2000F8BD3046FFF756FF054600BF002D01D074
:10DE3000012000E000200746002F06D100BF4DA2C0
:10DE4000FF211331FFF731FB00BF00BF002E0CD1C3
:10DE5000E07E002801D0012000E0002003462A4691
:10DE600003214E48FFF794FF00E000BF00BF206988
:10DE7000FFF79CFD2069FFF76EFD2069FFF796FD17
:10DE80006068FFF768FDE068FFF765FD0021A068A6
:10DE90008A0005231B0707273F02DB198700DA5199
:10DEA00000BF207C28776068296805221202891843
:10DEB0008860E06829688918C860A068296889189E
:10DEC00008612068296889184862A07E4000617E48
:10DED00089000843217E0843296815229201891888
:10DEE000486100212868FF300130816000BF0420B4
:10DEF000285627DF0746002F07D000BF1DA2FF21AD
:10DF000042313846FFF7D1FA00BF00BF00BF217D84
:10DF10000420285628DF0746002F07D000BF15A28F
:10DF2000FF2143313846FFF7C0FA00BF00BF002091
:10DF3000286204202968032212028918486000BF61
:10DF4000285623DF0746002F07D000BF09A2FF2174
:10DF50004A313846FFF7A9FA00BF00BF01202968FF
:10DF60000522120289180860022124204155002050
:10DF700056E700002E2E5C2E2E5C536F7572636583
:10DF80005C7370695F6D61737465725C7370695FF7
:10DF90006D61737465722E630000000000300040F4
:10DFA00070B5044600BF002C01D0012000E0002025
:10DFB0000546002D05D100BF19A2C021FFF775FA53
:10DFC00000BF00BFA068002807D0E089A18988426F
:10DFD00003DAA068E189405C00E0002021680522A6
:10DFE00012028918C861E089401CE081E089218B18
:10DFF000884213DAA068002807D0E089A189884206
:10E0000003DAA068E189405C00E000202168052275
:10E0100012028918C861E089401CE08170BD0000CF
:10E020002E2E5C2E2E5C536F757263655C73706967
:10E030005F6D61737465725C7370695F6D61737439
:10E0400065722E6300000000FFB583B0154603988B
:10E05000FFF740FE044600BF002C01D0012000E085
:10E0600000200746002F06D100BF44A2FF219A31AD
:10E07000FFF71BFA00BF00BF0020029000260190AE
:10E080002620005D00280ED000BF01A82BDF074628
:10E09000002F07D000BF39A2FF21A5313846FFF776
:10E0A00004FA00BF0FE000BF0420205624DF07461B
:10E0B000002F07D000BF31A2FF21AA313846FFF759
:10E0C000F4F900BF00BF2420005D02282DD10C9878
:10E0D000A84201DD0C9800E028460646002E21DD0E
:10E0E00001212420015500206083002125200155B5
:10E0F000268320460E30831E821F294600900498F6
:10E10000FFF726FD20461630831E821F00900C99D3
:10E110000698FFF71DFD207FFFF730FC2046FFF734
:10E120003FFF04E00720029001E01120029026202A
:10E13000005D00280FD000BF684600792CDF07463D
:10E14000002F07D000BF0DA2FF21D6313846FFF7C0
:10E15000ACF900BF0FE000BF0420205623DF0746C4
:10E16000002F07D000BF05A2FF21DB313846FFF7A3
:10E170009CF900BF00BF029807B0F0BD2E2E5C2EA8
:10E180002E5C536F757263655C7370695F6D61734C
:10E190007465725C7370695F6D61737465722E6310
:10E1A0000000000070B5044600BF002C01D0012023
:10E1B00000E000200646002E05D100BF2DA2D82188
:10E1C000FFF773F900BF00BF608B401C6083252000
:10E1D000005D002807D1012125200155628B002117
:10E1E000204600F05BF8206805210902401880698C
:10E1F000C5B22069002808D0E08AA18A884204DAE2
:10E20000E08A411CE18221690D54E089218B88421A
:10E2100013DAA068002807D0E089A189884203DAD0
:10E22000A068E189405C00E000202168052212021C
:10E230008918C861E089401CE081608B218B88428D
:10E2400016DB207FFFF7B2FBE68921460C31081F61
:10E25000FFF7D6FC21461431081FFFF7D1FC02213D
:10E260002420015532460121204600F017F800BF56
:10E2700070BD00002E2E5C2E2E5C536F7572636590
:10E280005C7370695F6D61737465725C7370695FF4
:10E290006D61737465722E6300000000F8B504466A
:10E2A0000D46164600BF002C01D0012000E00020E2
:10E2B0000746002F05D100BF09A2AF21FFF7F5F8EF
:10E2C00000BF00BF206A002809D00F4800680090F6
:10E2D000684605704680216A0098884700BFF8BDEF
:10E2E0002E2E5C2E2E5C536F757263655C737069A5
:10E2F0005F6D61737465725C7370695F6D61737477
:10E3000065722E630000000000E600000246501A0D
:10E310000002000A7047000070B504460D4800680E
:10E32000002813D00B4AE169A0691268904705469E
:10E3300000BF2E46002E07D000BF07A2FF21643188
:10E340003046FFF7B2F800BF00BF02E0A169E06904
:10E35000884770BD280900202E2E5C2E2E5C536F3E
:10E36000757263655C6170705F636F6D6D6F6E5C1D
:10E370006170705F74696D65722E6300FEB5002078
:10E38000C04301900F4804680F4807686846FFF7CC
:10E39000D7F80546FFF7CAF90646002D05D001AAB1
:10E3A00021460098FFF7FEF801260198FFF71EFAB4
:10E3B000002800D00126002E02D03846FFF778F85A
:10E3C000FEBD0000180900201409002010B514201B
:10E3D000FFF704F810BD0000F0B5024624205043BA
:10E3E000314B1B68C11831480068401C02D12F48CE
:10E3F000026057E02D484B680068242460432A4C93
:10E40000246800194068834217D8284800682423EC
:10E410005843254B1B68C01840684B68C31A2348F3
:10E42000006824246043204C2468001943601F487E
:10E43000006808621D48026034E04B681B4D2C6880
:10E4400028680DE024254543174E3668AD196D68E0
:10E450005B1B044624254543134E3668AD19286AD4
:10E46000451C07D0242545430F4E3668AD196D680D
:10E470009D42E7D3451C0CD0242545430A4E3668FF
:10E48000AD196D68EE1A24254543074F3F68ED1915
:10E490006E604B60086224256543034E3668AD19F3
:10E4A0002A6200BFF0BD0000080900201409002006
:10E4B000F8B50646274805682C4609E0B44200D165
:10E4C00008E0254624206043234909684018046A6F
:10E4D000601CF3D100BF601C00D1F8BDA5420FD174
:10E4E0001C480068242148431B4909684018006AF9
:10E4F0001849086008460068401C01D1FFF78AFAF5
:10E500002420604314490968401847682420604368
:10E51000114909684018016A242068430E4A1268AC
:10E5200080180162242068430B4909684018046A76
:10E53000601C0CD0242060430749096840184068DB
:10E54000C11924206043044A12688018416000BF4A
:10E55000C3E700001409002008090020F8B51F488F
:10E560000068401C39D00027FFF730FA04461C48E9
:10E5700001682046FFF7CAFE06461848056811E004
:10E58000242068431749096844186068B04200D9DC
:10E590000AE06068361A6068C719256A2046FFF7E6
:10E5A000BBFE00BF681CEBD100BF0F4800780F49CD
:10E5B0000978884209D10D480078401CC0B20B4947
:10E5C0000870022801D100200870084800788000F7
:10E5D00007490F50FFF7FAFE00BFF8BD14090020ED
:10E5E000180900200809002024090020250900201E
:10E5F0001C09002010B51120FEF7F0FE10BD000030
:10E600000200000000000080FFFFFFFFFFFFFFFF90
:10E61000FFFFFFFFFFFFFFFF0300000001000000FE
:10E6200040E6000000090020300000008CD400000B
:10E6300070E6000030090020280A00009CD4000089
:10E64000000000000024F4000000000000000000B2
:10E6500000000000000000000000000000000000BA
:10E6600000000000000000000000000000000000AA
:040000050000D0C166
:00000001FF
